{
  "_format": "hh-sol-artifact-1",
  "contractName": "Token",
  "sourceName": "contracts/Token.sol",
  "abi": [
    {
      "inputs": [],
      "stateMutability": "nonpayable",
      "type": "constructor"
    },
    {
      "anonymous": false,
      "inputs": [
        {
          "indexed": true,
          "internalType": "address",
          "name": "_from",
          "type": "address"
        },
        {
          "indexed": true,
          "internalType": "address",
          "name": "_to",
          "type": "address"
        },
        {
          "indexed": false,
          "internalType": "uint256",
          "name": "_value",
          "type": "uint256"
        }
      ],
      "name": "TokensSent",
      "type": "event"
    },
    {
      "anonymous": false,
      "inputs": [
        {
          "indexed": true,
          "internalType": "address",
          "name": "_from",
          "type": "address"
        },
        {
          "indexed": true,
          "internalType": "address",
          "name": "_to",
          "type": "address"
        },
        {
          "indexed": false,
          "internalType": "uint256",
          "name": "_value",
          "type": "uint256"
        }
      ],
      "name": "Transfer",
      "type": "event"
    },
    {
      "inputs": [
        {
          "internalType": "address",
          "name": "account",
          "type": "address"
        }
      ],
      "name": "balanceOf",
      "outputs": [
        {
          "internalType": "uint256",
          "name": "",
          "type": "uint256"
        }
      ],
      "stateMutability": "view",
      "type": "function"
    },
    {
      "inputs": [
        {
          "internalType": "address",
          "name": "",
          "type": "address"
        }
      ],
      "name": "balances",
      "outputs": [
        {
          "internalType": "uint256",
          "name": "",
          "type": "uint256"
        }
      ],
      "stateMutability": "view",
      "type": "function"
    },
    {
      "inputs": [],
      "name": "faucetBalance",
      "outputs": [
        {
          "internalType": "uint256",
          "name": "",
          "type": "uint256"
        }
      ],
      "stateMutability": "view",
      "type": "function"
    },
    {
      "inputs": [
        {
          "internalType": "address",
          "name": "",
          "type": "address"
        }
      ],
      "name": "lastRequestTime",
      "outputs": [
        {
          "internalType": "uint256",
          "name": "",
          "type": "uint256"
        }
      ],
      "stateMutability": "view",
      "type": "function"
    },
    {
      "inputs": [],
      "name": "name",
      "outputs": [
        {
          "internalType": "string",
          "name": "",
          "type": "string"
        }
      ],
      "stateMutability": "view",
      "type": "function"
    },
    {
      "inputs": [],
      "name": "owner",
      "outputs": [
        {
          "internalType": "address",
          "name": "",
          "type": "address"
        }
      ],
      "stateMutability": "view",
      "type": "function"
    },
    {
      "inputs": [
        {
          "internalType": "address",
          "name": "recipient",
          "type": "address"
        },
        {
          "internalType": "uint256",
          "name": "amount",
          "type": "uint256"
        }
      ],
      "name": "requestTokens",
      "outputs": [],
      "stateMutability": "nonpayable",
      "type": "function"
    },
    {
      "inputs": [],
      "name": "symbol",
      "outputs": [
        {
          "internalType": "string",
          "name": "",
          "type": "string"
        }
      ],
      "stateMutability": "view",
      "type": "function"
    },
    {
      "inputs": [
        {
          "internalType": "address",
          "name": "",
          "type": "address"
        }
      ],
      "name": "totalRequested",
      "outputs": [
        {
          "internalType": "uint256",
          "name": "",
          "type": "uint256"
        }
      ],
      "stateMutability": "view",
      "type": "function"
    },
    {
      "inputs": [],
      "name": "totalSupply",
      "outputs": [
        {
          "internalType": "uint256",
          "name": "",
          "type": "uint256"
        }
      ],
      "stateMutability": "view",
      "type": "function"
    },
    {
      "inputs": [
        {
          "internalType": "address",
          "name": "to",
          "type": "address"
        },
        {
          "internalType": "uint256",
          "name": "amount",
          "type": "uint256"
        }
      ],
      "name": "transfer",
      "outputs": [],
      "stateMutability": "nonpayable",
      "type": "function"
    }
  ],
  "bytecode": "0x60c0604052601060809081526f26bc902430b9323430ba102a37b5b2b760811b60a05260009061002f908261013e565b5060408051808201909152600381526213521560ea1b6020820152600190610057908261013e565b506509184e72a00060025534801561006e57600080fd5b5060025433600081815260046020526040902091909155600380546001600160a01b03191690911790556101fd565b634e487b7160e01b600052604160045260246000fd5b600181811c908216806100c757607f821691505b6020821081036100e757634e487b7160e01b600052602260045260246000fd5b50919050565b601f821115610139576000816000526020600020601f850160051c810160208610156101165750805b601f850160051c820191505b8181101561013557828155600101610122565b5050505b505050565b81516001600160401b038111156101575761015761009d565b61016b8161016584546100b3565b846100ed565b602080601f8311600181146101a057600084156101885750858301515b600019600386901b1c1916600185901b178555610135565b600085815260208120601f198616915b828110156101cf578886015182559484019460019091019084016101b0565b50858210156101ed5787850151600019600388901b60f8161c191681555b5050505050600190811b01905550565b6106ee8061020c6000396000f3fe608060405234801561001057600080fd5b50600436106100a95760003560e01c806370a082311161007157806370a082311461013f5780638da5cb5b1461016857806395d89b4114610193578063a9059cbb1461019b578063af421564146101b0578063f9714461146101c357600080fd5b806306fdde03146100ae5780631720f5d2146100cc57806318160ddd146100f657806327e235e3146100ff578063394f61811461011f575b600080fd5b6100b66101e3565b6040516100c39190610585565b60405180910390f35b6003546001600160a01b03166000908152600460205260409020545b6040519081526020016100c3565b6100e860025481565b6100e861010d3660046105f0565b60046020526000908152604090205481565b6100e861012d3660046105f0565b60056020526000908152604090205481565b6100e861014d3660046105f0565b6001600160a01b031660009081526004602052604090205490565b60035461017b906001600160a01b031681565b6040516001600160a01b0390911681526020016100c3565b6100b6610271565b6101ae6101a9366004610612565b61027e565b005b6101ae6101be366004610612565b61036e565b6100e86101d13660046105f0565b60066020526000908152604090205481565b600080546101f09061063c565b80601f016020809104026020016040519081016040528092919081815260200182805461021c9061063c565b80156102695780601f1061023e57610100808354040283529160200191610269565b820191906000526020600020905b81548152906001019060200180831161024c57829003601f168201915b505050505081565b600180546101f09061063c565b336000908152600460205260409020548111156102d95760405162461bcd60e51b8152602060048201526014602482015273496e73756666696369656e742062616c616e636560601b60448201526064015b60405180910390fd5b33600090815260046020526040812080548392906102f890849061068c565b90915550506001600160a01b038216600090815260046020526040812080548392906103259084906106a5565b90915550506040518181526001600160a01b0383169033907fddf252ad1be2c89b69c2b068fc378daa952ba7f163c4a11628f55a4df523b3ef9060200160405180910390a35050565b600081116103b75760405162461bcd60e51b8152602060048201526016602482015275125b9d985b1a59081c995c5d595cdd08185b5bdd5b9d60521b60448201526064016102d0565b6001600160a01b0382166000908152600560205260409020546103dc9061012c6106a5565b4210156104375760405162461bcd60e51b815260206004820152602360248201527f506c656173652077616974206265666f72652072657175657374696e6720616760448201526230b4b760e91b60648201526084016102d0565b6001600160a01b038216600090815260056020908152604080832042905560069091528120546104689083906106a5565b90506101f48111156104d35760405162461bcd60e51b815260206004820152602e60248201527f4578636565646564206d6178696d756d20616c6c6f776564207265717565737460448201526d7320696e2035206d696e7574657360901b60648201526084016102d0565b6001600160a01b03831660009081526006602090815260408083208490556004909152812080548492906105089084906106a5565b90915550506003546001600160a01b03166000908152600460205260408120805484929061053790849061068c565b90915550506003546040518381526001600160a01b038581169216907fe607861baff3d292b19188affe88c1a72bdcb69d3015f18bb2cd0bf5349cc3e19060200160405180910390a3505050565b60006020808352835180602085015260005b818110156105b357858101830151858201604001528201610597565b506000604082860101526040601f19601f8301168501019250505092915050565b80356001600160a01b03811681146105eb57600080fd5b919050565b60006020828403121561060257600080fd5b61060b826105d4565b9392505050565b6000806040838503121561062557600080fd5b61062e836105d4565b946020939093013593505050565b600181811c9082168061065057607f821691505b60208210810361067057634e487b7160e01b600052602260045260246000fd5b50919050565b634e487b7160e01b600052601160045260246000fd5b8181038181111561069f5761069f610676565b92915050565b8082018082111561069f5761069f61067656fea2646970667358221220a52fd5c6d57d377d3b0ea1429d8a572ed29616ea9d784de28d82dfeebee3209c64736f6c63430008180033",
  "linkReferences": {},
  "deployedLinkReferences": {}
}